:020000040000FA
:100000000210E6C3ED9BFEEFD39E4014ED2BFDE402
:1000100033FCC3EF9DEC6480F8748098500280013B
:10002000C32222020FC7E4F5A922220213D87EFFC1
:10003000EFD394004022EF9480501DE4FDED75F065
:100040000FA4243BF582E43419F583E493B5070447
:10005000AE0580040DBD06E5AF06220211FD1218A3
:10006000D153D87853DBFE121892E4900085F02229
:10007000D2DE2202142BD2011216A2C290C296D254
:1000800080E4FBFD7F1012187912064374A4F0D2AD
:10009000AFE4F52FF530D2960530E5307002052F2C
:1000A000B410F3E52FB427EEC2963001091215B94A
:1000B0008E328F338006753201753300E53370045C
:1000C000E532640170409000CCE07007F52FF53008
:1000D0000202870530E5307002052FD39410E52F1A
:1000E00094274002D296D3E5309430E52F94755092
:1000F00003020287E4F52FF5309000CCF09000CB9E
:10010000F0C296020287E4F52FF5309000CCE0149F
:10011000602A14700302025914700302021E147044
:100120000302023424046003020287E53364AA60F8
:10013000030202879000CC04F0020287E5339000AE
:10014000CBF0A37402F0E5331208B30206A00170ED
:10015000A10182A501A6A601BAA701C3A801DFA932
:1001600001C6B001CFB10197C00287FF00000215A0
:100170001205E69000A87401F0E4900075F07FA1EC
:10018000806E12005E9000CC7404F0753108E4F5C6
:10019000357534090202879000CC7404F0E4F5351B
:1001A000753402020287E49000A8F0900075F07F99
:1001B000A612067474A6F002028712064374A4F015
:1001C0000202877531089000CC7403F00202879018
:1001D00000757401F07FB1120674EFF0020287120D
:1001E00005E69000A8E0F52EE4F0900075F07FA9F8
:1001F00012154590007CEFF07D307C757F017E000C
:100200001216F502028712065790007CEFF0E49078
:1002100000CCF08072E49000CBF0A3F08069E4F5AC
:1002200035E533F534E534D394009000CC402574A3
:1002300004F0805374042535F582E43400F583E539
:1002400033F00535E53565346007E535C394704016
:10025000369000CC7402F0802EE5336455702890FF
:1002600000CCF0C2019000CBE02460601824FC6058
:100270000F24FE600B14600824F66004241070073D
:100280007FA0121846D2019000CBE01208B302B052
:10029000A102DAA402ECA503C5A603E1A8051FA9E3
:1002A000055CB005CFB1038DC003B3FF000000AA09
:1002B000900084E030E70F7DC87C001206167FA313
:1002C00012147E02053912188A40030200AA7DE842
:1002D0007C031206167FA2020554900084E020E7FA
:1002E000030200AA7FA412147E0203D99000CCE07E
:1002F00060030200AA900085E024FC606D24046085
:10030000030200AA1531900008E0FEA3E0FF7C0084
:100310007D641208D9C006C00712164CD007D0065B
:100320001208218F3E900006E0FEA3E0FF8E3FF50D
:10033000407C007D641208D9C006C00712164CD05C
:1003400007D0061208218F41754218900008E0FA84
:10035000A3E0FB900004E0FCA3E0FDA3E0FEA3E02B
:10036000FF12067B7406F00204EBE53160171206FB
:100370002DD39400500302051012062D12066012B0
:1003800018C30205101206577FA00205549000CC36
:10039000E060030200AA900004E0FCA3E0FD7F01FE
:1003A0007E001216F5D2961218C3C2967FA01218BC
:1003B00046800A7F01121846E49000CCF0D2011268
:1003C000066B0200AA900084E020E7030200AA5412
:1003D0007FF537FD7FA6121381E4900084F00200C0
:1003E000AA9000CCE060030200AA900085E024FC03
:1003F00070030204F1240460030200AA1531120004
:100400005E900004E0647F702FA3E0FEA3E0FFA3F2
:10041000E0FCA3E0FDA3E0FAA3E0FBA3E0F53EA32C
:10042000E0F53FA3E0F540A3E0F541A3E0F542127B
:10043000067B740CF00204E2900004E0FF12002E30
:100440008F36E536F470030204DDEF75F00FA42457
:10045000E2F582E43418F583E493FE740193FFC05F
:1004600006C00712166624E4F582E4341812166DED
:10047000C004C00512166624E7F582E43418F5833B
:10048000E493FA740193FB12166624EBF582E434CC
:1004900018F583E493FF12166624E9F582E4341814
:1004A00012166D12166624ECF582E43418F583E416
:1004B00093FE12166624EEF582E43418F583E49375
:1004C000F5428E418C3F8D408F3ED005D004D00741
:1004D000D0061213079000747401F08005E49000B8
:1004E000CBF09000CBE070030200AA1217CC020000
:1004F000AAE531602312166624EFF582E43418F57C
:1005000083E493FFD394004007EF1206601218C3F0
:10051000E4900085F00200AA12066B7FA08035905F
:100520000084E0FF30E71C547FF5377DC87C001263
:1005300005F9AD377FAB121381E4900084F0D2014E
:100540000200AA12188A40030200AA7DE87C031266
:1005500005F97FAA121846D2010200AA900004E011
:1005600025E0F5379000CCE060030200AA900085FA
:10057000E0700512005E800B900085E0640460036B
:100580000200AAE5376007E534C394045008E490FC
:1005900000CBF00200AA74062537F9E43400753B5D
:1005A00001F53C893DC3E534953724FEF53E9000C6
:1005B00005E0F53F7B017A0079061212827FA012D6
:1005C000184690007CE0FF121545D2010200AA9067
:1005D0000084E020E7030200AA7FB1120F18E49024
:1005E0000084F00200AA7D327C007F017E0012169A
:1005F000F5D2961218C3C296227F017E001216F51C
:10060000D2961218C3C2969000A8E52EF090007CF6
:10061000E0FF121545227F017E001216F5D29612D8
:1006200018C3C29690007CE0FF121545227F01128C
:10063000002EEF75F00FA424EFF582E43418F58353
:10064000E493229000A87401F0E4900075F07FA478
:1006500012154590007C2290007CE0FF1215452287
:10066000FD7C007F017E001216F52290007CE0FFE9
:100670001215452212154590007C22121307900096
:100680007422BB010CE58229F582E5833AF583E00B
:10069000225006E92582F8E622BBFE06E92582F80B
:1006A000E222E58229F582E5833AF583E49322BBD1
:1006B000010689828A83F0225002F722BBFE01F3F1
:1006C00022EF8DF0A4A8F0CF8CF0A428CE8DF0A45A
:1006D0002EFE22BC000BBE0029EF8DF084FFADF092
:1006E00022E4CCF875F008EF2FFFEE33FEEC33FC7C
:1006F000EE9DEC984005FCEE9DFE0FD5F0E9E4CEB2
:10070000FD22EDF8F5F0EE8420D21CFEADF075F080
:1007100008EF2FFFED33FD4007985006D5F0F22289
:10072000C398FD0FD5F0EA22C2D5EC30E709B2D567
:10073000E4C39DFDE49CFCEE30E715B2D5E4C39F15
:10074000FFE49EFE1206D3C3E49DFDE49CFC8003FF
:100750001206D330D507C3E49FFFE49EFE22BB01FF
:1007600010E58229F582E5833AF583E0F5F0A3E010
:10077000225009E92582F886F008E622BBFE0AE944
:100780002582F8E2F5F008E222E5832AF583E99371
:10079000F5F0A3E99322E88FF0A4CC8BF0A42CFC15
:1007A000E98EF0A42CFC8AF0EDA42CFCEA8EF0A4D7
:1007B000CDA8F08BF0A42DCC3825F0FDE98FF0A466
:1007C0002CCD35F0FCEB8EF0A4FEA9F0EB8FF0A45D
:1007D000CFC5F02ECD39FEE43CFCEAA42DCE35F099
:1007E000FDE43CFC2275F008758200EF2FFFEE332C
:1007F000FECD33CDCC33CCC58233C5829BED9AEC94
:1008000099E58298400CF582EE9BFEED9AFDEC99FD
:10081000FC0FD5F0D6E4CEFBE4CDFAE4CCF9A88207
:1008200022B800C1B90059BA002DEC8BF084CFCEAC
:10083000CDFCE5F0CBF97818EF2FFFEE33FEED336A
:10084000FDEC33FCEB33FB10D703994004EB99FB31
:100850000FD8E5E4F9FA227818EF2FFFEE33FEED1A
:1008600033FDEC33FCC933C910D7059BE99A400727
:10087000EC9BFCE99AF90FD8E0E4C9FAE4CCFB223E
:1008800075F010EF2FFFEE33FEED33FDCC33CCC807
:1008900033C810D7079BEC9AE899400AED9BFDEC12
:1008A0009AFCE899F80FD5F0DAE4CDFBE4CCFAE451
:1008B000C8F922D083D082F8E49370127401937047
:1008C0000DA3A393F8740193F5828883E4737402F3
:1008D000936860EFA3A3A380DFEC8EF0A4CCC5F0F7
:1008E000CCCDF8EFA4CEC5F02DFDE43CFCE8A42E61
:1008F000C8C5F03DFDE43CFCEFA4FFE5F028FEE4B4
:100900003DFDE43CFC22EF4E6012EF60010EEDBBBA
:10091000010B89828A83F0A3DFFCDEFA2289F05082
:1009200007F709DFFCA9F022BBFEFCF309DFFCA9F5
:10093000F022AFE9AEEA7C007D0A1206C18E088F74
:1009400009209303020B0E85080A85090BC3E509EC
:10095000950DF511E508950CF510900075E01470F3
:1009600003020B08046003020B2F900085E0146063
:1009700065046003020B2F900084E06003020B2FDC
:100980009000A8E0FFAB11AA10AD0FAC0E120E5BE9
:100990008F12E51264807003020B2F90007F120CFF
:1009A000AD900002E510F0A3E511120C69E490008F
:1009B00074F0900077F090007EF0F513F514FE7F50
:1009C00070FD7B017A007904120906E490007DF045
:1009D00090008504F022E51275F00FA42440F58202
:1009E000E43419F583E493FFD39400400B90007E28
:1009F000E09F5004E004F022900088E014F09000A2
:100A000077E004F0AE10AF11AB07AA06E50F2BFF9D
:100A1000E50E3AFEE433FDE433FCC004A905AA0662
:100A2000AB07AE0EAF0F120CB5D0001208218F220B
:100A3000120B471200034027E51275F00FA424465D
:100A4000F582E43419120B54AF2212000340101245
:100A50000B306F600AE4900084F0C290A3F0221281
:100A60000B47AF221200035007120B30C39F4011F7
:100A7000D3E50F9514E50E9513402B120B306F70D4
:100A800025900086120CADD290120C08C083C08253
:100A9000120CA57401A806088002C333D8FC4FD0FD
:100AA00082D083F0801790007A120CADC290D3955B
:100AB00014E50E95134006850E13850F14900088DB
:100AC000E07011120C08120C38FF1217E790007D2D
:100AD000EF120C69120B306F70551218825005E43A
:100AE000900083F0120C3560171218927DF47C018F
:100AF0007F017E001216CC120CC8E512F04480F083
:100B0000C290E4900085F022AF11AE10801E8508DF
:100B10000C85090DC3E509950BF50FE508950AF558
:100B20000E900075E0147007AF0FAE0E120CDC22B1
:100B3000E51275F00FA42448F582E43419F583E436
:100B400093FF900077E022E51275F00FA42445F59D
:100B500082E43419F583E493FDE51275F00FA424C3
:100B600047F582E43419F583E493FB22120821ABA4
:100B700007AA06E4F9F87F407E427D0FFC120821A7
:100B8000E47BFFFAF9F8120796A804A905AA06ABB8
:100B9000077F207ED77D757C01120821EFF40422A7
:100BA000900074E02404F582E43400F58322AE263C
:100BB000AF277C007D1F1206D38E2A8F2B7C007DF1
:100BC000051206D3C3E52B9FFDE52A9EFCD3E52540
:100BD0009DE5249C22E52975F00FA4243EF582E4CE
:100BE0003419F583E493FE740193FF2438FDEE3449
:100BF000FFFCD3E5279DE5269C22E52525E0248AF8
:100C0000F582E43400F58322900077E024FFFFE4CE
:100C100034FFFE7C007D0812072874042FF58274CF
:100C2000003EF58322E52B2FFFE52A3EC3FEE52596
:100C30009FE5249E22900083E0FF90007DE06F22DC
:100C4000E52975F00FA4243CF582E43419F58322DC
:100C500053DAFE53F7DF53F7BF22AB3BAA3CA93D63
:100C6000854082758300020682F09000887408F047
:100C700022EF24C8FFE43EFEC3E5279FE5269E221F
:100C800075F0FFA4FFAEF07C007D640206D39000F7
:100C900078E523F0A3E524F022900081E0FF9000A6
:100CA00077E0D39F22E0FF900088E0FE22E50EF07F
:100CB000A3E50FF0227C007D640208D9540F75F083
:100CC00002A4F58285F0832290007DE0900083F0FD
:100CD000A322D3E5279470E5269417228E238F2430
:100CE000900085E0146035147003020DB724026093
:100CF00003020E4CC290900084E06003020E4CAFE1
:100D000024AE231218144003020E4CE4900001F0AC
:100D1000120C8E9000857401F0D29022900078E041
:100D2000FCA3E0FDAE047802CEC313CE13D8F92D98
:100D3000FFEC3EFED3E5249FE5239E4009120C8E76
:100D4000E4900001F022AF24AE23121507501F904B
:100D50000001E094004017E4900074F09000887463
:100D600004F0E490007DF09000857402F022C3E569
:100D7000249464E5239400406F120E4D501C120B16
:100D8000FAE0FEA3E02524FFE5233EC313FEEF13A4
:100D9000FF120BFAEEF0A3EFF022900001E0120B2D
:100DA000FC120C91900001E004F0E0D3941E50037B
:100DB000020E4CE4020E3DB290AF24AE2312150792
:100DC00050291218825005E4900083F0120C35600F
:100DD000151218927DF47C017F017E001216CC1250
:100DE0000CC8E04480F0C290E4805D120E4D50507B
:100DF000900088E0B40411E525C454F0FF120BA064
:100E0000EFF0E4900088F022120BA0E0FFE52554FB
:100E10000FFEEF4EF0900074E004F0900088740430
:100E2000F0120BA0120C38FF1217E7EFF0900074CD
:100E3000E0D394704016121892E4900001F08008FC
:100E4000121892E4900001F0900085F0227B007A65
:100E5000007925AF24AE23121175228F238C248DA7
:100E6000258A268B27752880E523707CE4F5297F69
:100E70000112002EEF6529701B120CD2405FE5278E
:100E80009450E52694465055120BAE4050120C2556
:100E9000504B807E120C40E493FE740193FFD39478
:100EA00000EE9400402BEF2438FFEE34FFD3120CF9
:100EB0002D402A120C4074019324C8FFE49334009F
:100EC000120C2C5018120BD54013120C71500E80BE
:100ED00041120BD54007120C71500280350529E5EF
:100EE00029C394064089802DAF2312002E8F297FBD
:100EF0000112002EEF6529701C120CD24017E52755
:100F00009450E5269446500D120BAE4008120C2565
:100F10005003852928AF2822AE07E4F53812176D53
:100F2000900001E004FF121774120FC0900001E05E
:100F3000FFE538C39F50121215A21215871215A291
:100F4000F58312158E053880E3900078E0FF1217C4
:100F50007490007812158E120FC0900088E0B404CF
:100F60000F900001E0C454F0FF121594EFF08017C9
:100F7000121594C083C082E0FF900001E0540FFE80
:100F8000EF4ED082D083F0E4F538900074E0240175
:100F9000FFE433FEC3E5389FEE6480F87480985018
:100FA00017740425381215820538E538541F70DA95
:100FB0001218D41218CD80D27F551217740218D48B
:100FC0001218D41218CD22C0E0C0F0C083C082C075
:100FD000D075D000C000C001C002C003C004C0056D
:100FE000C006C007E5985403F547F45298E547302A
:100FF000E0171218DA9000C01215AEEFF09000C0A2
:10100000E004F0E0B41402E4F0E54730E12E900093
:10101000C2E0D39400401A9000BFE02448F8E6FFF5
:101020001218D79000BFE004F09000C2E014F080E6
:1010300002D2029000BFE0B42002E4F0D007D00654
:10104000D005D004D003D002D001D000D0D0D082BF
:10105000D083D0F0D0E0324200C700004200C3008D
:10106000004200C900004200C500004100CC004120
:1010700000CB0041008400410085004100A80041F0
:1010800000750041007C0041007656410089AB416B
:101090000000004100820042007F00004200020088
:1010A00000420086000042007A00004100810041B9
:1010B0000088004100770041007E0041007400413B
:1010C00000830041007D00410001004100C000415B
:1010D00000C1004100BE004100BF004100C200410C
:1010E00000BD00C10200120022787FE4F6D8FD7531
:1010F0008167021130020076E493A3F8E493A340E1
:1011000003F68001F208DFF48029E493A3F8540782
:10111000240CC8C333C4540F4420C8834004F4567D
:10112000800146F6DFE4800B0102040810204080B5
:10113000901057E47E019360BCA3FF543F30E50953
:10114000541FFEE493A360010ECF54C025E060A8B5
:1011500040B8E493A3FAE493A3F8E493A3C8C58248
:10116000C8CAC583CAF0A3C8C582C8CAC583CADFB6
:10117000E9DEE780BE8E268F278B288A29892AC23E
:1011800000E4F52B900001E0FFE52BC39F506BE5D9
:1011900027AE267803CEC313CE13D8F9FDAC06E5EF
:1011A00027AE267802CEC313CE13D8F92DF52DEE37
:1011B0003CF52CE52B120BFCE0FEA3E0FFC3952DC4
:1011C000FDEE952CFCC3ED9527EC95265028E52DDA
:1011D0002FFFE52C3EFEC3E5279FE5269E5017E531
:1011E0002A45294528600BAB28AA29A92AE52B12F4
:1011F00006AFD2008004052B808AA20022C0E0C086
:10120000F0C083C082C0D075D000C000C001C00251
:10121000C003C004C005C006C007E5D85487F52147
:10122000F452D8E5F730E508E5F730E6031215EF9C
:1012300053F7DFE52130E708E5D930E00312002A53
:10124000E52130E008E5DA30E00312171EE5213031
:10125000E108E5DB30E003120932E52130E208E580
:10126000DC30E0031218E0D007D006D005D004D05F
:1012700003D002D001D000D0D0D082D083D0F0D023
:10128000E0328B388A39893A53DBFE120C5053E234
:10129000FDE4F540E540C3953E504FAB38AA39A96F
:1012A0003AC003C002C001120C5AC4120CBCD001D7
:1012B000D002D00312075EF54285F041D2801212AF
:1012C000F9AB38AA39A93AC003C002C001120C5ABE
:1012D000120CBCD001D002D00312075EF54285F09B
:1012E00041C2801212F9054080AAB290AF3F153F6B
:1012F000EF709E43E202C29022FDAC417F0A7E0065
:101300001216201218C3228E388F398C3A8D3BAEBC
:1013100002AF03120CB5C007AF3EAB07E4FAF9F811
:10132000D007120B6C900000F0AE3FAF40120CB52E
:10133000C007AF41AB07E4FAF9F8D007120B6C9085
:101340000082F0E53E120C80900076EFF0E541124D
:101350000C80900089EFF090007FE538F0A3E5392C
:10136000F0900002E53AF0A3E53BF0900081E54201
:10137000F043DA0153F7DF43F74053DBFE75F9FF23
:1013800022AE07E4FCFB12176DED75F00FA424A24A
:10139000F582E43419F583E493FFECC39F5007749E
:1013A000082CFC0B80E3EB04FF121774ED75F00FB3
:1013B000A42495F582E43419F583E493FF1217749D
:1013C000E4FCECC39B500974042C1215820C80F2CF
:1013D0007F551217740218D4C0E0C083C082C0D0F9
:1013E00075D000C004C005C006C00753C87F900078
:1013F000C7E0FEA3E0FF4E700353C8FB9000C3128A
:1014000014FC50099000C7E4F0A3F0800DC39000D5
:10141000C8E09DF09000C7E09CF0D007D006D00552
:10142000D004D0D0D082D083D0E032C0E0C083C01E
:1014300082C0D075D000C004C005C006C00753915B
:101440007F9000C9E0FEA3E0FF4E70035391FB9034
:1014500000C51214FC50099000C9E4F0A3F0800DFF
:10146000C39000CAE09DF09000C9E09CF0D007D086
:1014700006D005D004D0D0D082D083D0E032AE07E1
:10148000E4FDF53812176D900002E0FF121774901A
:10149000000212158E90007AE0FF12177490007A05
:1014A00012158E900086E0FF1217749000861215B8
:1014B0008E74042D1215820DBD03F67F551217741C
:1014C0000218D4AB07AA06E4F9F87F407E427D0FEC
:1014D000FC120821A804A905AA06AB077F207ED725
:1014E0007D757C01120821C3E49FFFE49EFE22ABC0
:1014F00007AA06E4F9F87FE87E03FD22E0FCA3E0FA
:10150000FDC3EF9DEE9C22AD07AC06900078E0FE97
:10151000A3E07802CEC313CE13D8F9FFC3900079AD
:10152000E09FFB900078E09EFAC3EB9DEA9C50138D
:10153000A3E02FFF900078E03EFEC3ED9FEC9E50AD
:10154000028001C3228F3890007CE0F5397F0B12B6
:1015500018DD43DB01120C501200707D0A7C007F05
:10156000017E001216F51218C343E202E4900085D2
:10157000F0900084F09000CBE538F090007CF0AF64
:101580003922F582E43400F583E0FF021774A3E00A
:10159000FF021774900074E02404F582E43400F52F
:1015A0008322E53825E0248AF582E4340022E02411
:1015B000A9F582E43400F583229000C0E0FF90009A
:1015C000BEE0B507057E017F00229000BE1215AE79
:1015D000E0FD7C009000BEE004F0E0B41402E4F012
:1015E0009000BDE0FEEE4204E4F0AE04AF0522122E
:1015F0000C9940030217AE120BA0120CA5EFA8061F
:10160000088002C313D8FC30E00B900000E0FF120A
:1016100018DDD29022900082E0FF1218DDC29022E5
:101620008E438F448C458D461214C312182EE54606
:1016300024BF9000CAF0E54534FF9000C9F0900047
:10164000C5E543F0A3E544F043910422900006E091
:10165000FEA3E0FF900009E02FFF900008E03EAB02
:1016600007FAE4F9F822E53675F00FA422F583E4D1
:1016700093FC740193FD22D29053E2FDD28090003E
:101680007F121692C290C28090000212169243E21C
:101690000222E0FCA3E0FD7F0A7E00121620121851
:1016A000C3221218991218A01218A712185112006A
:1016B000261217FE12186F12185B12186512183ACC
:1016C0001218AE1218B51218C90218BC8E268F2730
:1016D0008C288D291214EF1214D01218229000C7F2
:1016E000E528F0A3E529F09000C3E526F0A3E5275F
:1016F000F043C804228E3A8F3B8C3C8D3D1214EF90
:101700001214D012182E9000C9E53CF0A3E53DF06C
:101710009000C5E53AF0A3E53BF043910422900028
:1017200088E07008900074E004120C69900077E083
:1017300004F0900088E014F0120C99500302174650
:1017400053E2FDC28022120BA0120CA5EFA80608DE
:101750008002C313D8FC30E005900076800390002F
:1017600089E07D00FCE4FF12179022AE077FAA12E9
:101770001774AF06C2029000C1E0B42002E4F090FA
:1017800000C1E02448F8A607E004F0A3E004F0223A
:10179000AB07AF04EB14600C14600E2402700E8DC6
:1017A000FB8FFC228DE98FEA228DEB8FEC22E4FD8A
:1017B000FCFF121790120C501218D153D87853E234
:1017C000FDC280C2909000857404F022120C6AE081
:1017D00014F09000777401F09000857403F01217F4
:1017E000461216770200707E1DE4FDEF30E70625F5
:1017F000E06EFF8004EF25E0FF0DBD08EE22AF880C
:101800005388AF758CA0758DCBEF5440FEEF54100C
:101810004E428822C3EF94ACEE940D4003D3800176
:10182000C322AD07AC06ECF5CBAF058FCA22AD07DE
:10183000AC06ECF593AF058F9222C2DE75D9057523
:10184000F9FF7596012212176B7F55121774021853
:10185000D475E34075E10175E20222E59154045329
:1018600091FB429122758E5475892243885022E55E
:10187000C8540453C8FB42C82253984FEB4F4DF550
:101880009822E5C8C320E201D322E591C320E201FA
:10189000D32253C8FB53C87F227597DE7597AD22BC
:1018A00075A41175D4CE2275A54175D5772253F74D
:1018B0007F75DA4A2253F77F75DB302275E6907523
:1018C000A8B022E59120E2FB22439810223002FDCD
:1018D00022C2DE22D299228F9922AF99228F8C22A6
:1018E00022010190307000064001904B1908180049
:1018F0000212C005DC0002BC012C461E08280803A9
:101900000BB8232800044C01904B1908180004253B
:101910001C0BB80003840140461E08180005000097
:1019200072D80702BC012C2640084000060BAE1CF2
:101930003E00043901C5461E0F18000101903070A9
:1019400000064001904B190818000212C005DC0087
:1019500002BC012C461E082808030BB823280004EB
:101960004C01904B1908180004251C0BB800038487
:101970000140461E08180005000072D80702BC018D
:101980002C2640084000060BAE1C3E00043901C561
:10199000461E0F1800010190307000064001904B68
:1019A000190818000212C005DC0002BC012C461EFA
:1019B000082808030BB8232800044C01904B190891
:1019C000180004251C0BB80003840140461E0818AB
:1019D0000005000072D80702BC012C264008400018
:0F19E000060BAE1C3E00043901C5461E0F180051
:00000001FF
